:020000040000FA
:1000000000000228CD30AE000130AF00803000008B
:1000100000001D210000000083120000C7002F080F
:10002000C600CF30C8000130C90083120000460866
:10003000CA004708CB00FF30C607031CC7034B08A4
:100040004A0403199A2804304807CA00CB01CB0D93
:100050004908CB074A08AE004B08AF0080300000CB
:1000600000001D210000000083120000CD002F08B9
:10007000CC004808AE004908AF0080300000000006
:100080001D210000000083120000CF00CB002F08CC
:10009000CA00CE0002304807CA00CB01CB0D490888
:1000A000CB074A08AE004B08AF00803000000000CC
:1000B0001D210000000083120000CB00D1002F089A
:1000C000D000CA00831200004C08D0004D08D100B7
:1000D000FF30CC07031CCD035108500403199328AB
:1000E0004E08AE004F08AF008030000000000A212B
:1000F0000000000083120000D0004A08831203139E
:1001000084008313831200004B1883175008831256
:100110000313800083120000CE0A0319CF0ACA0A13
:100120000319CB0A6228063083120000C80703189F
:10013000C90A1528000000009E28080020308316F8
:100140008500831285010330B000B1018312851E42
:10015000062900303102031DAF2801303002031C94
:10016000012900303102031DB7280730300203187F
:1001700001293003B20000308A00C2303207031870
:100180008A0A8200C828D128DA28E428EE28F8282C
:1001900083120514C830AF0000306A2183120510A5
:1001A000012983120516C830AF0000306A2183127E
:1001B00005120129113083128500C830AF000030CC
:1001C0006A21831285010129123083128500C8300B
:1001D000AF0000306A218312850101291330831298
:1001E0008500C830AF0000306A21831285010129E3
:1001F000163083128500C830AF0000306A218312A8
:100200008501B421B1002F08B000A6288312850112
:10021000A6280800003A03191129803A0319182961
:1002200000342E08840083132F1883170008080059
:100230002F088A002E0882000800003A0319252999
:10024000803A03192F29AF0100342E08840083134C
:100250002F1883170008AF00840A00080800000068
:1002600000001821AD00AE0FAF03AF0A0000000080
:100270001821AC002D08AF002C080800BF00BD00FD
:10028000BB002F082E08BE00BC003E08BE1B502934
:10029000003C03195729BF0D013E031C4B29572968
:1002A0000310BF1B0314BF0C013E031C50293C0864
:1002B000BD00083CBC003B08BD003C08003C0319E5
:1002C0006529BD0C013E031C61293F08BB003D04AC
:1002D000BF000800B4002F08B300B501B601340810
:1002E0003602031D75293308350203189029FB30A7
:1002F000B7000430B800FF303707B900FF30BA004C
:1003000038080318380FBA073908B7003A08B80098
:100310003A083904031D7B29B50A0319B60A6F2967
:1003200008005208C0005308C1004007C20040083E
:10033000C1060630AE000030AF0040083E21C000CC
:100340004108C0064108C3000310430DC300C006A6
:100350004008D2000330AE000030AF0041083E211B
:10036000C000D300420808009121C400C50100303C
:10037000803E803E031DBE29073044020318B42985
:100380004508803E803E031DC72901304402031CFE
:10039000B4294408AF004508080002340034DB34B7
:1003A00001345234003402340034DD340134543426
:0C03B0000034013400340034A334003465
:02400E00F73F7A
:00000001FF
