:020000040000FA
:1000000000000228C930AE000130AF00803000008F
:10001000000019210000000083120000C6002F0814
:10002000C500CB30C7000130C8008312000045086E
:10003000C9004608CA00FF30C507031CC6034A08AA
:10004000490403199A2804304707C900CA01CA0D98
:100050004808CA074908AE004A08AF0080300000CF
:10006000000019210000000083120000CC002F08BE
:10007000CB004708AE004808AF0080300000000009
:1000800019210000000083120000CE00CA002F08D2
:10009000C900CD0002304707C900CA01CA0D48088F
:1000A000CA074908AE004A08AF00803000000000CF
:1000B00019210000000083120000CA00D0002F08A0
:1000C000CF00C900831200004B08CF004C08D000BD
:1000D000FF30CB07031CCC0350084F0403199328AF
:1000E0004D08AE004E08AF00803000000000062131
:1000F0000000000083120000CF00490883120313A0
:1001000084008313831200004A1883174F08831258
:100110000313800083120000CD0A0319CE0AC90A16
:100120000319CA0A6228063083120000C7070318A1
:10013000C80A1528000000009E28080020308316F9
:100140008500831285018312851E0229B021B1002A
:100150002F08B00000303102031DB02801303002FA
:10016000031CA32800303102031DB82807303002D9
:100170000318A328B00300308A00C23030070318E8
:100180008A0A8200C828D128DA28E428EE28F8282C
:1001900083120514C830AF000030662183120510A9
:1001A000A32883120516C830AF00003066218312E1
:1001B0000512A328113083128500C830AF0000302B
:1001C000662183128501A328123083128500C8306E
:1001D000AF000030662183128501A32813308312FB
:1001E0008500C830AF000030662183128501A32846
:1001F000163083128500C830AF00003066218312AC
:100200008501A32883128501A3280800003A031959
:100210000D29803A0319142900342E088400831311
:100220002F188317000808002F088A002E08820064
:100230000800003A03192129803A03192B29AF013C
:1002400000342E08840083132F1883170008AF0092
:10025000840A00080800000000001421AD00AE0F61
:10026000AF03AF0A000000001421AC002D08AF005E
:100270002C080800BE00BC00BA002F082E08BD00E4
:10028000BB003D08BD1B4C29003C03195329BE0D82
:10029000013E031C472953290310BE1B0314BE0C47
:1002A000013E031C4C293B08BC00083CBB003A083B
:1002B000BC003B08003C03196129BC0C013E031C37
:1002C0005D293E08BA003C04BE000800B3002F08B8
:1002D000B200B401B50133083502031D712932089B
:1002E000340203188C29FB30B6000430B700FF300D
:1002F0003607B800FF30B90037080318370FB907C1
:100300003808B6003908B70039083804031D7729C2
:10031000B40A0319B50A6B2908005108BF00520836
:10032000C0003F07C1003F08C0060630AE000030E5
:10033000AF003F083A21BF004008BF064008C20096
:100340000310420DC200BF063F08D1000330AE00CB
:100350000030AF0040083A21BF00D2004108080039
:100360008D21C300C4010030803E803E031DBA29A8
:10037000073043020318B0294408803E803E031D25
:10038000C32901304302031CB0294308AF004408CD
:10039000080002340034D7340134513400340234BC
:1003A0000034D9340134533400340134003400347F
:0403B000A33400343E
:02400E00F73F7A
:00000001FF
